{
  "contractName": "MyERC721",
  "abi": [
    {
      "constant": true,
      "inputs": [
        {
          "name": "interfaceId",
          "type": "bytes4"
        }
      ],
      "name": "supportsInterface",
      "outputs": [
        {
          "name": "",
          "type": "bool"
        }
      ],
      "payable": false,
      "stateMutability": "view",
      "type": "function"
    },
    {
      "constant": true,
      "inputs": [],
      "name": "name",
      "outputs": [
        {
          "name": "",
          "type": "string"
        }
      ],
      "payable": false,
      "stateMutability": "view",
      "type": "function"
    },
    {
      "constant": true,
      "inputs": [
        {
          "name": "tokenId",
          "type": "uint256"
        }
      ],
      "name": "getApproved",
      "outputs": [
        {
          "name": "",
          "type": "address"
        }
      ],
      "payable": false,
      "stateMutability": "view",
      "type": "function"
    },
    {
      "constant": false,
      "inputs": [
        {
          "name": "to",
          "type": "address"
        },
        {
          "name": "tokenId",
          "type": "uint256"
        }
      ],
      "name": "approve",
      "outputs": [],
      "payable": false,
      "stateMutability": "nonpayable",
      "type": "function"
    },
    {
      "constant": true,
      "inputs": [],
      "name": "totalSupply",
      "outputs": [
        {
          "name": "",
          "type": "uint256"
        }
      ],
      "payable": false,
      "stateMutability": "view",
      "type": "function"
    },
    {
      "constant": false,
      "inputs": [
        {
          "name": "from",
          "type": "address"
        },
        {
          "name": "to",
          "type": "address"
        },
        {
          "name": "tokenId",
          "type": "uint256"
        }
      ],
      "name": "transferFrom",
      "outputs": [],
      "payable": false,
      "stateMutability": "nonpayable",
      "type": "function"
    },
    {
      "constant": true,
      "inputs": [
        {
          "name": "owner",
          "type": "address"
        },
        {
          "name": "index",
          "type": "uint256"
        }
      ],
      "name": "tokenOfOwnerByIndex",
      "outputs": [
        {
          "name": "",
          "type": "uint256"
        }
      ],
      "payable": false,
      "stateMutability": "view",
      "type": "function"
    },
    {
      "constant": false,
      "inputs": [
        {
          "name": "from",
          "type": "address"
        },
        {
          "name": "to",
          "type": "address"
        },
        {
          "name": "tokenId",
          "type": "uint256"
        }
      ],
      "name": "safeTransferFrom",
      "outputs": [],
      "payable": false,
      "stateMutability": "nonpayable",
      "type": "function"
    },
    {
      "constant": true,
      "inputs": [
        {
          "name": "index",
          "type": "uint256"
        }
      ],
      "name": "tokenByIndex",
      "outputs": [
        {
          "name": "",
          "type": "uint256"
        }
      ],
      "payable": false,
      "stateMutability": "view",
      "type": "function"
    },
    {
      "constant": true,
      "inputs": [
        {
          "name": "tokenId",
          "type": "uint256"
        }
      ],
      "name": "ownerOf",
      "outputs": [
        {
          "name": "",
          "type": "address"
        }
      ],
      "payable": false,
      "stateMutability": "view",
      "type": "function"
    },
    {
      "constant": true,
      "inputs": [
        {
          "name": "owner",
          "type": "address"
        }
      ],
      "name": "balanceOf",
      "outputs": [
        {
          "name": "",
          "type": "uint256"
        }
      ],
      "payable": false,
      "stateMutability": "view",
      "type": "function"
    },
    {
      "constant": true,
      "inputs": [],
      "name": "symbol",
      "outputs": [
        {
          "name": "",
          "type": "string"
        }
      ],
      "payable": false,
      "stateMutability": "view",
      "type": "function"
    },
    {
      "constant": false,
      "inputs": [
        {
          "name": "to",
          "type": "address"
        },
        {
          "name": "approved",
          "type": "bool"
        }
      ],
      "name": "setApprovalForAll",
      "outputs": [],
      "payable": false,
      "stateMutability": "nonpayable",
      "type": "function"
    },
    {
      "constant": false,
      "inputs": [
        {
          "name": "from",
          "type": "address"
        },
        {
          "name": "to",
          "type": "address"
        },
        {
          "name": "tokenId",
          "type": "uint256"
        },
        {
          "name": "_data",
          "type": "bytes"
        }
      ],
      "name": "safeTransferFrom",
      "outputs": [],
      "payable": false,
      "stateMutability": "nonpayable",
      "type": "function"
    },
    {
      "constant": true,
      "inputs": [
        {
          "name": "tokenId",
          "type": "uint256"
        }
      ],
      "name": "tokenURI",
      "outputs": [
        {
          "name": "",
          "type": "string"
        }
      ],
      "payable": false,
      "stateMutability": "view",
      "type": "function"
    },
    {
      "constant": true,
      "inputs": [
        {
          "name": "owner",
          "type": "address"
        },
        {
          "name": "operator",
          "type": "address"
        }
      ],
      "name": "isApprovedForAll",
      "outputs": [
        {
          "name": "",
          "type": "bool"
        }
      ],
      "payable": false,
      "stateMutability": "view",
      "type": "function"
    },
    {
      "inputs": [],
      "payable": false,
      "stateMutability": "nonpayable",
      "type": "constructor"
    },
    {
      "anonymous": false,
      "inputs": [
        {
          "indexed": true,
          "name": "from",
          "type": "address"
        },
        {
          "indexed": true,
          "name": "to",
          "type": "address"
        },
        {
          "indexed": true,
          "name": "tokenId",
          "type": "uint256"
        }
      ],
      "name": "Transfer",
      "type": "event"
    },
    {
      "anonymous": false,
      "inputs": [
        {
          "indexed": true,
          "name": "owner",
          "type": "address"
        },
        {
          "indexed": true,
          "name": "approved",
          "type": "address"
        },
        {
          "indexed": true,
          "name": "tokenId",
          "type": "uint256"
        }
      ],
      "name": "Approval",
      "type": "event"
    },
    {
      "anonymous": false,
      "inputs": [
        {
          "indexed": true,
          "name": "owner",
          "type": "address"
        },
        {
          "indexed": true,
          "name": "operator",
          "type": "address"
        },
        {
          "indexed": false,
          "name": "approved",
          "type": "bool"
        }
      ],
      "name": "ApprovalForAll",
      "type": "event"
    },
    {
      "constant": false,
      "inputs": [
        {
          "name": "player",
          "type": "address"
        },
        {
          "name": "tokenURI",
          "type": "string"
        }
      ],
      "name": "awardItem",
      "outputs": [
        {
          "name": "",
          "type": "uint256"
        }
      ],
      "payable": false,
      "stateMutability": "nonpayable",
      "type": "function"
    }
  ],
  "bytecode": "0x60806040523480156200001157600080fd5b506040805190810160405280601981526020017f496e737572616e636545786368616e676550726f7065727479000000000000008152506040805190810160405280600381526020017f49455000000000000000000000000000000000000000000000000000000000008152508181620000bd6301ffc9a77c010000000000000000000000000000000000000000000000000000000002620001b0640100000000026401000000009004565b620000fa6380ac58cd7c010000000000000000000000000000000000000000000000000000000002620001b0640100000000026401000000009004565b6200013763780e9d637c010000000000000000000000000000000000000000000000000000000002620001b0640100000000026401000000009004565b81600990805190602001906200014f929190620002d7565b5080600a908051906020019062000168929190620002d7565b50620001a6635b5e139f7c010000000000000000000000000000000000000000000000000000000002620001b0640100000000026401000000009004565b5050505062000386565b63ffffffff7c010000000000000000000000000000000000000000000000000000000002817bffffffffffffffffffffffffffffffffffffffffffffffffffffffff1916141515156200026b576040517f08c379a000000000000000000000000000000000000000000000000000000000815260040180806020018281038252601c8152602001807f4552433136353a20696e76616c696420696e746572666163652069640000000081525060200191505060405180910390fd5b6001600080837bffffffffffffffffffffffffffffffffffffffffffffffffffffffff19167bffffffffffffffffffffffffffffffffffffffffffffffffffffffff1916815260200190815260200160002060006101000a81548160ff02191690831515021790555050565b828054600181600116156101000203166002900490600052602060002090601f016020900481019282601f106200031a57805160ff19168380011785556200034b565b828001600101855582156200034b579182015b828111156200034a5782518255916020019190600101906200032d565b5b5090506200035a91906200035e565b5090565b6200038391905b808211156200037f57600081600090555060010162000365565b5090565b90565b61274580620003966000396000f3fe6080604052600436106100f1576000357c0100000000000000000000000000000000000000000000000000000000900463ffffffff16806301ffc9a7146100f657806306fdde0314610168578063081812fc146101f8578063095ea7b31461027357806318160ddd146102ce57806323b872dd146102f95780632f745c591461037457806342842e0e146103e35780634f6ccce71461045e5780636352211e146104ad57806370a082311461052857806395d89b411461058d578063a22cb4651461061d578063b88d4fde1461067a578063c87b56dd1461078c578063cf37834314610840578063e985e9c51461093c575b600080fd5b34801561010257600080fd5b5061014e6004803603602081101561011957600080fd5b8101908080357bffffffffffffffffffffffffffffffffffffffffffffffffffffffff191690602001909291905050506109c5565b604051808215151515815260200191505060405180910390f35b34801561017457600080fd5b5061017d610a2c565b6040518080602001828103825283818151815260200191508051906020019080838360005b838110156101bd5780820151818401526020810190506101a2565b50505050905090810190601f1680156101ea5780820380516001836020036101000a031916815260200191505b509250505060405180910390f35b34801561020457600080fd5b506102316004803603602081101561021b57600080fd5b8101908080359060200190929190505050610ace565b604051808273ffffffffffffffffffffffffffffffffffffffff1673ffffffffffffffffffffffffffffffffffffffff16815260200191505060405180910390f35b34801561027f57600080fd5b506102cc6004803603604081101561029657600080fd5b81019080803573ffffffffffffffffffffffffffffffffffffffff16906020019092919080359060200190929190505050610bae565b005b3480156102da57600080fd5b506102e3610e11565b6040518082815260200191505060405180910390f35b34801561030557600080fd5b506103726004803603606081101561031c57600080fd5b81019080803573ffffffffffffffffffffffffffffffffffffffff169060200190929190803573ffffffffffffffffffffffffffffffffffffffff16906020019092919080359060200190929190505050610e1e565b005b34801561038057600080fd5b506103cd6004803603604081101561039757600080fd5b81019080803573ffffffffffffffffffffffffffffffffffffffff16906020019092919080359060200190929190505050610ed2565b6040518082815260200191505060405180910390f35b3480156103ef57600080fd5b5061045c6004803603606081101561040657600080fd5b81019080803573ffffffffffffffffffffffffffffffffffffffff169060200190929190803573ffffffffffffffffffffffffffffffffffffffff16906020019092919080359060200190929190505050610fd8565b005b34801561046a57600080fd5b506104976004803603602081101561048157600080fd5b8101908080359060200190929190505050610ff9565b6040518082815260200191505060405180910390f35b3480156104b957600080fd5b506104e6600480360360208110156104d057600080fd5b81019080803590602001909291905050506110c0565b604051808273ffffffffffffffffffffffffffffffffffffffff1673ffffffffffffffffffffffffffffffffffffffff16815260200191505060405180910390f35b34801561053457600080fd5b506105776004803603602081101561054b57600080fd5b81019080803573ffffffffffffffffffffffffffffffffffffffff1690602001909291905050506111cd565b6040518082815260200191505060405180910390f35b34801561059957600080fd5b506105a26112e7565b6040518080602001828103825283818151815260200191508051906020019080838360005b838110156105e25780820151818401526020810190506105c7565b50505050905090810190601f16801561060f5780820380516001836020036101000a031916815260200191505b509250505060405180910390f35b34801561062957600080fd5b506106786004803603604081101561064057600080fd5b81019080803573ffffffffffffffffffffffffffffffffffffffff169060200190929190803515159060200190929190505050611389565b005b34801561068657600080fd5b5061078a6004803603608081101561069d57600080fd5b81019080803573ffffffffffffffffffffffffffffffffffffffff169060200190929190803573ffffffffffffffffffffffffffffffffffffffff169060200190929190803590602001909291908035906020019064010000000081111561070457600080fd5b82018360208201111561071657600080fd5b8035906020019184600183028401116401000000008311171561073857600080fd5b91908080601f016020809104026020016040519081016040528093929190818152602001838380828437600081840152601f19601f82011690508083019250505050505050919291929050505061152e565b005b34801561079857600080fd5b506107c5600480360360208110156107af57600080fd5b81019080803590602001909291905050506115e5565b6040518080602001828103825283818151815260200191508051906020019080838360005b838110156108055780820151818401526020810190506107ea565b50505050905090810190601f1680156108325780820380516001836020036101000a031916815260200191505b509250505060405180910390f35b34801561084c57600080fd5b506109266004803603604081101561086357600080fd5b81019080803573ffffffffffffffffffffffffffffffffffffffff169060200190929190803590602001906401000000008111156108a057600080fd5b8201836020820111156108b257600080fd5b803590602001918460018302840111640100000000831117156108d457600080fd5b91908080601f016020809104026020016040519081016040528093929190818152602001838380828437600081840152601f19601f82011690508083019250505050505050919291929050505061173d565b6040518082815260200191505060405180910390f35b34801561094857600080fd5b506109ab6004803603604081101561095f57600080fd5b81019080803573ffffffffffffffffffffffffffffffffffffffff169060200190929190803573ffffffffffffffffffffffffffffffffffffffff169060200190929190505050611775565b604051808215151515815260200191505060405180910390f35b6000806000837bffffffffffffffffffffffffffffffffffffffffffffffffffffffff19167bffffffffffffffffffffffffffffffffffffffffffffffffffffffff1916815260200190815260200160002060009054906101000a900460ff169050919050565b606060098054600181600116156101000203166002900480601f016020809104026020016040519081016040528092919081815260200182805460018160011615610100020316600290048015610ac45780601f10610a9957610100808354040283529160200191610ac4565b820191906000526020600020905b815481529060010190602001808311610aa757829003601f168201915b5050505050905090565b6000610ad982611809565b1515610b73576040517f08c379a000000000000000000000000000000000000000000000000000000000815260040180806020018281038252602c8152602001807f4552433732313a20617070726f76656420717565727920666f72206e6f6e657881526020017f697374656e7420746f6b656e000000000000000000000000000000000000000081525060400191505060405180910390fd5b6002600083815260200190815260200160002060009054906101000a900473ffffffffffffffffffffffffffffffffffffffff169050919050565b6000610bb9826110c0565b90508073ffffffffffffffffffffffffffffffffffffffff168373ffffffffffffffffffffffffffffffffffffffff1614151515610c85576040517f08c379a00000000000000000000000000000000000000000000000000000000081526004018080602001828103825260218152602001807f4552433732313a20617070726f76616c20746f2063757272656e74206f776e6581526020017f720000000000000000000000000000000000000000000000000000000000000081525060400191505060405180910390fd5b8073ffffffffffffffffffffffffffffffffffffffff163373ffffffffffffffffffffffffffffffffffffffff161480610cc55750610cc48133611775565b5b1515610d5f576040517f08c379a00000000000000000000000000000000000000000000000000000000081526004018080602001828103825260388152602001807f4552433732313a20617070726f76652063616c6c6572206973206e6f74206f7781526020017f6e6572206e6f7220617070726f76656420666f7220616c6c000000000000000081525060400191505060405180910390fd5b826002600084815260200190815260200160002060006101000a81548173ffffffffffffffffffffffffffffffffffffffff021916908373ffffffffffffffffffffffffffffffffffffffff160217905550818373ffffffffffffffffffffffffffffffffffffffff168273ffffffffffffffffffffffffffffffffffffffff167f8c5be1e5ebec7d5bd14f71427d1e84f3dd0314c0f7b2291e5b200ac8c7c3b92560405160405180910390a4505050565b6000600780549050905090565b610e28338261187b565b1515610ec2576040517f08c379a00000000000000000000000000000000000000000000000000000000081526004018080602001828103825260318152602001807f4552433732313a207472616e736665722063616c6c6572206973206e6f74206f81526020017f776e6572206e6f7220617070726f76656400000000000000000000000000000081525060400191505060405180910390fd5b610ecd8383836119b4565b505050565b6000610edd836111cd565b82101515610f79576040517f08c379a000000000000000000000000000000000000000000000000000000000815260040180806020018281038252602b8152602001807f455243373231456e756d657261626c653a206f776e657220696e646578206f7581526020017f74206f6620626f756e647300000000000000000000000000000000000000000081525060400191505060405180910390fd5b600560008473ffffffffffffffffffffffffffffffffffffffff1673ffffffffffffffffffffffffffffffffffffffff16815260200190815260200160002082815481101515610fc557fe5b9060005260206000200154905092915050565b610ff4838383602060405190810160405280600081525061152e565b505050565b6000611003610e11565b8210151561109f576040517f08c379a000000000000000000000000000000000000000000000000000000000815260040180806020018281038252602c8152602001807f455243373231456e756d657261626c653a20676c6f62616c20696e646578206f81526020017f7574206f6620626f756e6473000000000000000000000000000000000000000081525060400191505060405180910390fd5b6007828154811015156110ae57fe5b90600052602060002001549050919050565b6000806001600084815260200190815260200160002060009054906101000a900473ffffffffffffffffffffffffffffffffffffffff169050600073ffffffffffffffffffffffffffffffffffffffff168173ffffffffffffffffffffffffffffffffffffffff16141515156111c4576040517f08c379a00000000000000000000000000000000000000000000000000000000081526004018080602001828103825260298152602001807f4552433732313a206f776e657220717565727920666f72206e6f6e657869737481526020017f656e7420746f6b656e000000000000000000000000000000000000000000000081525060400191505060405180910390fd5b80915050919050565b60008073ffffffffffffffffffffffffffffffffffffffff168273ffffffffffffffffffffffffffffffffffffffff1614151515611299576040517f08c379a000000000000000000000000000000000000000000000000000000000815260040180806020018281038252602a8152602001807f4552433732313a2062616c616e636520717565727920666f7220746865207a6581526020017f726f20616464726573730000000000000000000000000000000000000000000081525060400191505060405180910390fd5b6112e0600360008473ffffffffffffffffffffffffffffffffffffffff1673ffffffffffffffffffffffffffffffffffffffff1681526020019081526020016000206119d8565b9050919050565b6060600a8054600181600116156101000203166002900480601f01602080910402602001604051908101604052809291908181526020018280546001816001161561010002031660029004801561137f5780601f106113545761010080835404028352916020019161137f565b820191906000526020600020905b81548152906001019060200180831161136257829003601f168201915b5050505050905090565b3373ffffffffffffffffffffffffffffffffffffffff168273ffffffffffffffffffffffffffffffffffffffff161415151561142d576040517f08c379a00000000000000000000000000000000000000000000000000000000081526004018080602001828103825260198152602001807f4552433732313a20617070726f766520746f2063616c6c65720000000000000081525060200191505060405180910390fd5b80600460003373ffffffffffffffffffffffffffffffffffffffff1673ffffffffffffffffffffffffffffffffffffffff16815260200190815260200160002060008473ffffffffffffffffffffffffffffffffffffffff1673ffffffffffffffffffffffffffffffffffffffff16815260200190815260200160002060006101000a81548160ff0219169083151502179055508173ffffffffffffffffffffffffffffffffffffffff163373ffffffffffffffffffffffffffffffffffffffff167f17307eab39ab6107e8899845ad3d59bd9653f200f220920489ca2b5937696c3183604051808215151515815260200191505060405180910390a35050565b611539848484610e1e565b611545848484846119e6565b15156115df576040517f08c379a00000000000000000000000000000000000000000000000000000000081526004018080602001828103825260328152602001807f4552433732313a207472616e7366657220746f206e6f6e20455243373231526581526020017f63656976657220696d706c656d656e746572000000000000000000000000000081525060400191505060405180910390fd5b50505050565b60606115f082611809565b151561168a576040517f08c379a000000000000000000000000000000000000000000000000000000000815260040180806020018281038252602f8152602001807f4552433732314d657461646174613a2055524920717565727920666f72206e6f81526020017f6e6578697374656e7420746f6b656e000000000000000000000000000000000081525060400191505060405180910390fd5b600b60008381526020019081526020016000208054600181600116156101000203166002900480601f0160208091040260200160405190810160405280929190818152602001828054600181600116156101000203166002900480156117315780601f1061170657610100808354040283529160200191611731565b820191906000526020600020905b81548152906001019060200180831161171457829003601f168201915b50505050509050919050565b6000611749600c611c09565b6000611755600c6119d8565b90506117618482611c1f565b61176b8184611c40565b8091505092915050565b6000600460008473ffffffffffffffffffffffffffffffffffffffff1673ffffffffffffffffffffffffffffffffffffffff16815260200190815260200160002060008373ffffffffffffffffffffffffffffffffffffffff1673ffffffffffffffffffffffffffffffffffffffff16815260200190815260200160002060009054906101000a900460ff16905092915050565b6000806001600084815260200190815260200160002060009054906101000a900473ffffffffffffffffffffffffffffffffffffffff169050600073ffffffffffffffffffffffffffffffffffffffff168173ffffffffffffffffffffffffffffffffffffffff161415915050919050565b600061188682611809565b1515611920576040517f08c379a000000000000000000000000000000000000000000000000000000000815260040180806020018281038252602c8152602001807f4552433732313a206f70657261746f7220717565727920666f72206e6f6e657881526020017f697374656e7420746f6b656e000000000000000000000000000000000000000081525060400191505060405180910390fd5b600061192b836110c0565b90508073ffffffffffffffffffffffffffffffffffffffff168473ffffffffffffffffffffffffffffffffffffffff16148061199a57508373ffffffffffffffffffffffffffffffffffffffff1661198284610ace565b73ffffffffffffffffffffffffffffffffffffffff16145b806119ab57506119aa8185611775565b5b91505092915050565b6119bf838383611d0f565b6119c98382611ff4565b6119d38282612198565b505050565b600081600001549050919050565b6000611a078473ffffffffffffffffffffffffffffffffffffffff1661225f565b1515611a165760019050611c01565b60008473ffffffffffffffffffffffffffffffffffffffff1663150b7a02338887876040518563ffffffff167c0100000000000000000000000000000000000000000000000000000000028152600401808573ffffffffffffffffffffffffffffffffffffffff1673ffffffffffffffffffffffffffffffffffffffff1681526020018473ffffffffffffffffffffffffffffffffffffffff1673ffffffffffffffffffffffffffffffffffffffff16815260200183815260200180602001828103825283818151815260200191508051906020019080838360005b83811015611b0d578082015181840152602081019050611af2565b50505050905090810190601f168015611b3a5780820380516001836020036101000a031916815260200191505b5095505050505050602060405180830381600087803b158015611b5c57600080fd5b505af1158015611b70573d6000803e3d6000fd5b505050506040513d6020811015611b8657600080fd5b8101908080519060200190929190505050905063150b7a027c0100000000000000000000000000000000000000000000000000000000027bffffffffffffffffffffffffffffffffffffffffffffffffffffffff1916817bffffffffffffffffffffffffffffffffffffffffffffffffffffffff1916149150505b949350505050565b6001816000016000828254019250508190555050565b611c298282612272565b611c338282612198565b611c3c8161248e565b5050565b611c4982611809565b1515611ce3576040517f08c379a000000000000000000000000000000000000000000000000000000000815260040180806020018281038252602c8152602001807f4552433732314d657461646174613a2055524920736574206f66206e6f6e657881526020017f697374656e7420746f6b656e000000000000000000000000000000000000000081525060400191505060405180910390fd5b80600b60008481526020019081526020016000209080519060200190611d0a929190612648565b505050565b8273ffffffffffffffffffffffffffffffffffffffff16611d2f826110c0565b73ffffffffffffffffffffffffffffffffffffffff16141515611de0576040517f08c379a00000000000000000000000000000000000000000000000000000000081526004018080602001828103825260298152602001807f4552433732313a207472616e73666572206f6620746f6b656e2074686174206981526020017f73206e6f74206f776e000000000000000000000000000000000000000000000081525060400191505060405180910390fd5b600073ffffffffffffffffffffffffffffffffffffffff168273ffffffffffffffffffffffffffffffffffffffff1614151515611eab576040517f08c379a00000000000000000000000000000000000000000000000000000000081526004018080602001828103825260248152602001807f4552433732313a207472616e7366657220746f20746865207a65726f2061646481526020017f726573730000000000000000000000000000000000000000000000000000000081525060400191505060405180910390fd5b611eb4816124da565b611efb600360008573ffffffffffffffffffffffffffffffffffffffff1673ffffffffffffffffffffffffffffffffffffffff16815260200190815260200160002061259a565b611f42600360008473ffffffffffffffffffffffffffffffffffffffff1673ffffffffffffffffffffffffffffffffffffffff168152602001908152602001600020611c09565b816001600083815260200190815260200160002060006101000a81548173ffffffffffffffffffffffffffffffffffffffff021916908373ffffffffffffffffffffffffffffffffffffffff160217905550808273ffffffffffffffffffffffffffffffffffffffff168473ffffffffffffffffffffffffffffffffffffffff167fddf252ad1be2c89b69c2b068fc378daa952ba7f163c4a11628f55a4df523b3ef60405160405180910390a4505050565b600061204c6001600560008673ffffffffffffffffffffffffffffffffffffffff1673ffffffffffffffffffffffffffffffffffffffff168152602001908152602001600020805490506125bd90919063ffffffff16565b9050600060066000848152602001908152602001600020549050818114151561213f576000600560008673ffffffffffffffffffffffffffffffffffffffff1673ffffffffffffffffffffffffffffffffffffffff168152602001908152602001600020838154811015156120bd57fe5b9060005260206000200154905080600560008773ffffffffffffffffffffffffffffffffffffffff1673ffffffffffffffffffffffffffffffffffffffff1681526020019081526020016000208381548110151561211757fe5b9060005260206000200181905550816006600083815260200190815260200160002081905550505b600560008573ffffffffffffffffffffffffffffffffffffffff1673ffffffffffffffffffffffffffffffffffffffff16815260200190815260200160002080548091906001900361219191906126c8565b5050505050565b600560008373ffffffffffffffffffffffffffffffffffffffff1673ffffffffffffffffffffffffffffffffffffffff168152602001908152602001600020805490506006600083815260200190815260200160002081905550600560008373ffffffffffffffffffffffffffffffffffffffff1673ffffffffffffffffffffffffffffffffffffffff1681526020019081526020016000208190806001815401808255809150509060018203906000526020600020016000909192909190915055505050565b600080823b905060008111915050919050565b600073ffffffffffffffffffffffffffffffffffffffff168273ffffffffffffffffffffffffffffffffffffffff1614151515612317576040517f08c379a00000000000000000000000000000000000000000000000000000000081526004018080602001828103825260208152602001807f4552433732313a206d696e7420746f20746865207a65726f206164647265737381525060200191505060405180910390fd5b61232081611809565b151515612395576040517f08c379a000000000000000000000000000000000000000000000000000000000815260040180806020018281038252601c8152602001807f4552433732313a20746f6b656e20616c7265616479206d696e7465640000000081525060200191505060405180910390fd5b816001600083815260200190815260200160002060006101000a81548173ffffffffffffffffffffffffffffffffffffffff021916908373ffffffffffffffffffffffffffffffffffffffff16021790555061242e600360008473ffffffffffffffffffffffffffffffffffffffff1673ffffffffffffffffffffffffffffffffffffffff168152602001908152602001600020611c09565b808273ffffffffffffffffffffffffffffffffffffffff16600073ffffffffffffffffffffffffffffffffffffffff167fddf252ad1be2c89b69c2b068fc378daa952ba7f163c4a11628f55a4df523b3ef60405160405180910390a45050565b6007805490506008600083815260200190815260200160002081905550600781908060018154018082558091505090600182039060005260206000200160009091929091909150555050565b600073ffffffffffffffffffffffffffffffffffffffff166002600083815260200190815260200160002060009054906101000a900473ffffffffffffffffffffffffffffffffffffffff1673ffffffffffffffffffffffffffffffffffffffff161415156125975760006002600083815260200190815260200160002060006101000a81548173ffffffffffffffffffffffffffffffffffffffff021916908373ffffffffffffffffffffffffffffffffffffffff1602179055505b50565b6125b2600182600001546125bd90919063ffffffff16565b816000018190555050565b6000828211151515612637576040517f08c379a000000000000000000000000000000000000000000000000000000000815260040180806020018281038252601e8152602001807f536166654d6174683a207375627472616374696f6e206f766572666c6f77000081525060200191505060405180910390fd5b600082840390508091505092915050565b828054600181600116156101000203166002900490600052602060002090601f016020900481019282601f1061268957805160ff19168380011785556126b7565b828001600101855582156126b7579182015b828111156126b657825182559160200191906001019061269b565b5b5090506126c491906126f4565b5090565b8154818355818111156126ef578183600052602060002091820191016126ee91906126f4565b5b505050565b61271691905b808211156127125760008160009055506001016126fa565b5090565b9056fea165627a7a72305820ca7a281189545e5e1fdf628ff5fdfca921a88ea1e71d5511b3963b0d9d3786ca0029",
  "source": "pragma solidity ^0.5.0;\r\n\r\nimport \"openzeppelin-solidity/contracts/token/ERC721/ERC721Full.sol\";\r\nimport \"openzeppelin-solidity/contracts/drafts/Counters.sol\";\r\n\r\ncontract MyERC721 is ERC721Full {\r\n    using Counters for Counters.Counter;\r\n    Counters.Counter private _tokenIds;\r\n\r\n    constructor() ERC721Full(\"InsuranceExchangeProperty\", \"IEP\") public {\r\n    }\r\n\r\n    function awardItem(address player, string memory tokenURI) public returns (uint256) {\r\n        _tokenIds.increment();\r\n\r\n        uint256 newItemId = _tokenIds.current();\r\n        _mint(player, newItemId);\r\n        _setTokenURI(newItemId, tokenURI);\r\n\r\n        return newItemId;\r\n    }\r\n}",
  "sourcePath": "/mnt/d/users/tanrenyuan/Documents/ethereum/solidity/zeppelinos/tokens/contracts/MyERC721.sol",
  "compiler": {
    "name": "solc",
    "version": "0.5.0+commit.1d4f565a.Emscripten.clang"
  },
  "schemaVersion": "3.0.9",
  "updatedAt": "2019-07-02T06:32:41.646Z",
  "devdoc": {
    "methods": {
      "approve(address,uint256)": {
        "details": "Approves another address to transfer the given token ID The zero address indicates there is no approved address. There can only be one approved address per token at a given time. Can only be called by the token owner or an approved operator.",
        "params": {
          "to": "address to be approved for the given token ID",
          "tokenId": "uint256 ID of the token to be approved"
        }
      },
      "balanceOf(address)": {
        "details": "Gets the balance of the specified address.",
        "params": {
          "owner": "address to query the balance of"
        },
        "return": "uint256 representing the amount owned by the passed address"
      },
      "getApproved(uint256)": {
        "details": "Gets the approved address for a token ID, or zero if no address set Reverts if the token ID does not exist.",
        "params": {
          "tokenId": "uint256 ID of the token to query the approval of"
        },
        "return": "address currently approved for the given token ID"
      },
      "isApprovedForAll(address,address)": {
        "details": "Tells whether an operator is approved by a given owner.",
        "params": {
          "operator": "operator address which you want to query the approval of",
          "owner": "owner address which you want to query the approval of"
        },
        "return": "bool whether the given operator is approved by the given owner"
      },
      "name()": {
        "details": "Gets the token name.",
        "return": "string representing the token name"
      },
      "ownerOf(uint256)": {
        "details": "Gets the owner of the specified token ID.",
        "params": {
          "tokenId": "uint256 ID of the token to query the owner of"
        },
        "return": "address currently marked as the owner of the given token ID"
      },
      "safeTransferFrom(address,address,uint256)": {
        "details": "Safely transfers the ownership of a given token ID to another address If the target address is a contract, it must implement `onERC721Received`, which is called upon a safe transfer, and return the magic value `bytes4(keccak256(\"onERC721Received(address,address,uint256,bytes)\"))`; otherwise, the transfer is reverted. Requires the msg.sender to be the owner, approved, or operator",
        "params": {
          "from": "current owner of the token",
          "to": "address to receive the ownership of the given token ID",
          "tokenId": "uint256 ID of the token to be transferred"
        }
      },
      "safeTransferFrom(address,address,uint256,bytes)": {
        "details": "Safely transfers the ownership of a given token ID to another address If the target address is a contract, it must implement `onERC721Received`, which is called upon a safe transfer, and return the magic value `bytes4(keccak256(\"onERC721Received(address,address,uint256,bytes)\"))`; otherwise, the transfer is reverted. Requires the msg.sender to be the owner, approved, or operator",
        "params": {
          "_data": "bytes data to send along with a safe transfer check",
          "from": "current owner of the token",
          "to": "address to receive the ownership of the given token ID",
          "tokenId": "uint256 ID of the token to be transferred"
        }
      },
      "setApprovalForAll(address,bool)": {
        "details": "Sets or unsets the approval of a given operator An operator is allowed to transfer all tokens of the sender on their behalf.",
        "params": {
          "approved": "representing the status of the approval to be set",
          "to": "operator address to set the approval"
        }
      },
      "supportsInterface(bytes4)": {
        "details": "See `IERC165.supportsInterface`.     * Time complexity O(1), guaranteed to always use less than 30 000 gas."
      },
      "symbol()": {
        "details": "Gets the token symbol.",
        "return": "string representing the token symbol"
      },
      "tokenByIndex(uint256)": {
        "details": "Gets the token ID at a given index of all the tokens in this contract Reverts if the index is greater or equal to the total number of tokens.",
        "params": {
          "index": "uint256 representing the index to be accessed of the tokens list"
        },
        "return": "uint256 token ID at the given index of the tokens list"
      },
      "tokenOfOwnerByIndex(address,uint256)": {
        "details": "Gets the token ID at a given index of the tokens list of the requested owner.",
        "params": {
          "index": "uint256 representing the index to be accessed of the requested tokens list",
          "owner": "address owning the tokens list to be accessed"
        },
        "return": "uint256 token ID at the given index of the tokens list owned by the requested address"
      },
      "tokenURI(uint256)": {
        "details": "Returns an URI for a given token ID. Throws if the token ID does not exist. May return an empty string.",
        "params": {
          "tokenId": "uint256 ID of the token to query"
        }
      },
      "totalSupply()": {
        "details": "Gets the total amount of tokens stored by the contract.",
        "return": "uint256 representing the total amount of tokens"
      },
      "transferFrom(address,address,uint256)": {
        "details": "Transfers the ownership of a given token ID to another address. Usage of this method is discouraged, use `safeTransferFrom` whenever possible. Requires the msg.sender to be the owner, approved, or operator.",
        "params": {
          "from": "current owner of the token",
          "to": "address to receive the ownership of the given token ID",
          "tokenId": "uint256 ID of the token to be transferred"
        }
      }
    }
  },
  "userdoc": {
    "methods": {}
  }
}