{
  "contractName": "Note",
  "abi": [
    {
      "constant": false,
      "inputs": [
        {
          "name": "_number",
          "type": "uint256"
        }
      ],
      "name": "initialize",
      "outputs": [],
      "payable": false,
      "stateMutability": "nonpayable",
      "type": "function"
    },
    {
      "constant": true,
      "inputs": [],
      "name": "getNumber",
      "outputs": [
        {
          "name": "_number",
          "type": "uint256"
        }
      ],
      "payable": false,
      "stateMutability": "view",
      "type": "function"
    },
    {
      "constant": false,
      "inputs": [
        {
          "name": "_number",
          "type": "uint256"
        }
      ],
      "name": "setNumber",
      "outputs": [],
      "payable": false,
      "stateMutability": "nonpayable",
      "type": "function"
    }
  ],
  "bytecode": "0x608060405234801561001057600080fd5b5061026f806100206000396000f300608060405260043610610057576000357c0100000000000000000000000000000000000000000000000000000000900463ffffffff1680633fb5c1cb1461005c578063f2c9ecd814610089578063fe4b84df146100b4575b600080fd5b34801561006857600080fd5b50610087600480360381019080803590602001909291905050506100e1565b005b34801561009557600080fd5b5061009e6100eb565b6040518082815260200191505060405180910390f35b3480156100c057600080fd5b506100df600480360381019080803590602001909291905050506100f5565b005b8060338190555050565b6000603354905090565b60008060019054906101000a900460ff16806101155750610114610232565b5b8061012c57506000809054906101000a900460ff16155b15156101c6576040517f08c379a000000000000000000000000000000000000000000000000000000000815260040180806020018281038252602e8152602001807f436f6e747261637420696e7374616e63652068617320616c726561647920626581526020017f656e20696e697469616c697a656400000000000000000000000000000000000081525060400191505060405180910390fd5b600060019054906101000a900460ff1690506001600060016101000a81548160ff02191690831515021790555060016000806101000a81548160ff0219169083151502179055508160338190555080600060016101000a81548160ff0219169083151502179055505050565b600080303b905060008114915050905600a165627a7a72305820a681be9c2986a823f536869e160acb201ae442ac15cb9dad90d4062b0024674e0029",
  "source": "// Note.sol\r\npragma solidity ^0.4.25;\r\n\r\nimport \"zos-lib/contracts/Initializable.sol\";\r\n\r\ncontract Note is Initializable {\r\n  uint256 private number;\r\n\r\n  function initialize(uint256 _number) public initializer {\r\n    number = _number;\r\n  }\r\n\r\n  function getNumber() public view returns (uint256 _number) {\r\n    return number;\r\n  }\r\n\r\n  function setNumber(uint256 _number) public {\r\n    number = _number;\r\n  }\r\n}",
  "sourcePath": "/mnt/d/users/tanrenyuan/Documents/solidity/zeppelinos/guide/contracts/Note.sol",
  "compiler": {
    "name": "solc",
    "version": "0.4.25+commit.59dbf8f1.Emscripten.clang"
  },
  "schemaVersion": "3.0.9",
  "updatedAt": "2019-05-23T09:58:10.010Z",
  "devdoc": {
    "methods": {}
  },
  "userdoc": {
    "methods": {}
  }
}